key1:
{"privateKey":"L1yD5RhKDhJEuqqBTN6pBjvwTmpEUBYXcvVU2SYgRfZidtqfaD7m",
"publicKey":"23wENGab7a9HWkwwdNZZKWProGSqaAMUyaiVTcfSsqqBL"}

key2:
{"privateKey":"L1eE9KHkiYqcLk9rHMGfswQj2qSQXjcfdCEo7oLEZmhQmMRx1o6Q",
"publicKey":"wYF7dgscsuVy87xcvGBew7BRhvZ9ALkZ5ZjwhCMjBtax"}

key3:
{"privateKey":"L4osLipBFRkz2JBmxvh3U2iWDn6ymkd5r4r9qgCnUVShv7c1tEWM",
"publicKey":"wzCpRxifpT45Mp5MYXxHK8nPbNvryboBZJqwNu8vWMEE"}

create_multi_sign 
{"nrequired":2,"privatekeys":["23wENGab7a9HWkwwdNZZKWProGSqaAMUyaiVTcfSsqqBL","wYF7dgscsuVy87xcvGBew7BRhvZ9ALkZ5ZjwhCMjBtax","wzCpRxifpT45Mp5MYXxHK8nPbNvryboBZJqwNu8vWMEE"]}
{"address":"3M8voDot82tBrQE7QWGy9WUWxp7gDU7owx"}
return
{"address":"35ySjn3BGVG9aKM9HWZnWjp4TaXb322Cyt",
"redeemScript":"5221038961b16b8a16e1b81d1d7975df2bf65b47c96cdf722c0876aa4775ff557b655721032a580ee9d52dce44da83397c715dfa48f48c0afed75565f0928af2f7427b834d210330fe9001ef50e9e4b5419bea9d04d8c484f913a5cb5fa8947b89482ff00c078753ae"}

createprocess
{"data":"helloeverybody","publickey":"35ySjn3BGVG9aKM9HWZnWjp4TaXb322Cyt"}

return
{"result""0100000022333579536a6e334247564739614b4d3948575a6e576a7034546158623332324379740e68656c6c6f6576657279626f6479001976a914b472a266d0bd89c13706a4132ccfb16f7c3b9fcb88ac00","error":null,"id":1}

signdata_1
{"data":"0100000022333579536a6e334247564739614b4d3948575a6e576a7034546158623332324379740e68656c6c6f6576657279626f6479001976a914b472a266d0bd89c13706a4132ccfb16f7c3b9fcb88ac00","privatekeys":["L1yD5RhKDhJEuqqBTN6pBjvwTmpEUBYXcvVU2SYgRfZidtqfaD7m"],"redeemScript":"5221038961b16b8a16e1b81d1d7975df2bf65b47c96cdf722c0876aa4775ff557b655721032a580ee9d52dce44da83397c715dfa48f48c0afed75565f0928af2f7427b834d210330fe9001ef50e9e4b5419bea9d04d8c484f913a5cb5fa8947b89482ff00c078753ae","scriptpubkey":"35ySjn3BGVG9aKM9HWZnWjp4TaXb322Cyt"}

result_1
{"Hex":"0100000022333579536a6e334247564739614b4d3948575a6e576a7034546158623332324379740e68656c6c6f6576657279626f6479001976a914b472a266d0bd89c13706a4132ccfb16f7c3b9fcb88acb5004830450221009818c9e3d0314322cf1f377eed0b3cf92865f8680d393f2b9b809f62b3e1418c0220494a18feb00d5dce01f2e3e6a1cde4ee587c7e54322eaa923994b9dcb22e06c7014c695221038961b16b8a16e1b81d1d7975df2bf65b47c96cdf722c0876aa4775ff557b655721032a580ee9d52dce44da83397c715dfa48f48c0afed75565f0928af2f7427b834d210330fe9001ef50e9e4b5419bea9d04d8c484f913a5cb5fa8947b89482ff00c078753ae","complete":false}

signdata_2
{"data":"0100000022333579536a6e334247564739614b4d3948575a6e576a7034546158623332324379740e68656c6c6f6576657279626f6479001976a914b472a266d0bd89c13706a4132ccfb16f7c3b9fcb88acb5004830450221009818c9e3d0314322cf1f377eed0b3cf92865f8680d393f2b9b809f62b3e1418c0220494a18feb00d5dce01f2e3e6a1cde4ee587c7e54322eaa923994b9dcb22e06c7014c695221038961b16b8a16e1b81d1d7975df2bf65b47c96cdf722c0876aa4775ff557b655721032a580ee9d52dce44da83397c715dfa48f48c0afed75565f0928af2f7427b834d210330fe9001ef50e9e4b5419bea9d04d8c484f913a5cb5fa8947b89482ff00c078753ae","privatekeys":["L1eE9KHkiYqcLk9rHMGfswQj2qSQXjcfdCEo7oLEZmhQmMRx1o6Q"],"redeemScript":"5221038961b16b8a16e1b81d1d7975df2bf65b47c96cdf722c0876aa4775ff557b655721032a580ee9d52dce44da83397c715dfa48f48c0afed75565f0928af2f7427b834d210330fe9001ef50e9e4b5419bea9d04d8c484f913a5cb5fa8947b89482ff00c078753ae","scriptpubkey":"35ySjn3BGVG9aKM9HWZnWjp4TaXb322Cyt"}

{"Hex":"0100000022333579536a6e334247564739614b4d3948575a6e576a7034546158623332324379740e68656c6c6f6576657279626f6479001976a914b472a266d0bd89c13706a4132ccfb16f7c3b9fcb88acb5004830450221009818c9e3d0314322cf1f377eed0b3cf92865f8680d393f2b9b809f62b3e1418c0220494a18feb00d5dce01f2e3e6a1cde4ee587c7e54322eaa923994b9dcb22e06c7014c695221038961b16b8a16e1b81d1d7975df2bf65b47c96cdf722c0876aa4775ff557b655721032a580ee9d52dce44da83397c715dfa48f48c0afed75565f0928af2f7427b834d210330fe9001ef50e9e4b5419bea9d04d8c484f913a5cb5fa8947b89482ff00c078753ae","complete":true},"error":null,"id":1}

send_to_sys
{"data":"0100000022333579536a6e334247564739614b4d3948575a6e576a7034546158623332324379740e68656c6c6f6576657279626f6479001976a914b472a266d0bd89c13706a4132ccfb16f7c3b9fcb88acfdfe00004830450221009818c9e3d0314322cf1f377eed0b3cf92865f8680d393f2b9b809f62b3e1418c0220494a18feb00d5dce01f2e3e6a1cde4ee587c7e54322eaa923994b9dcb22e06c701483045022100b28ba6ad40e470255f018b8da1dc3e96c87298afadbd9a3527b94d269ce01b2a022043f55e5c8c1b5bf895a0253f1b11f8592bec241cd445693eed019c434a440d6f014c695221038961b16b8a16e1b81d1d7975df2bf65b47c96cdf722c0876aa4775ff557b655721032a580ee9d52dce44da83397c715dfa48f48c0afed75565f0928af2f7427b834d210330fe9001ef50e9e4b5419bea9d04d8c484f913a5cb5fa8947b89482ff00c078753ae","publickey":["35ySjn3BGVG9aKM9HWZnWjp4TaXb322Cyt"]}




{
	"hex":"010000002231396153526f7375326a6b4b48554d563144597a66364350516b7446556b446d5a510d68656c6c6f206d79776f726c64006a473044022072ece3e9577e425daaa6604faf66d026eda0baa661920e33ab7416997a2ea2eb022077d080072a5bf419eb53a34e99292fd65dea18996d02af2a9cfaf3c6b75ce329012102402604933ed9a0fb68b2b2dc9972ee09b21137e237363b47f0ab3599310f3cf71976a9145e13f581890bc20e7f4202af3d9e4f138433743788ac",
	"dataid":"0264c085e2f5c2cedbb4a54b6c749750b096b3ebf99a70ffad94826de57dba6a",
	"data":"hello myworld",
	"scriptpubkey":{
		"asm":"OP_DUP OP_HASH160 5e13f581890bc20e7f4202af3d9e4f1384337437 OP_EQUALVERIFY OP_CHECKSIG",
		"hex":"76a9145e13f581890bc20e7f4202af3d9e4f138433743788ac","reqSigs":1,
		"type":"pubkeyhash",
		"addresses":["19aSRosu2jkKHUMV1DYzf6CPQktFUkDmZQ"]
	},
	"scriptsig":{
		"asm":"3044022072ece3e9577e425daaa6604faf66d026eda0baa661920e33ab7416997a2ea2eb022077d080072a5bf419eb53a34e99292fd65dea18996d02af2a9cfaf3c6b75ce329[ALL] 02402604933ed9a0fb68b2b2dc9972ee09b21137e237363b47f0ab3599310f3cf7",
		"hex":"473044022072ece3e9577e425daaa6604faf66d026eda0baa661920e33ab7416997a2ea2eb022077d080072a5bf419eb53a34e99292fd65dea18996d02af2a9cfaf3c6b75ce329012102402604933ed9a0fb68b2b2dc9972ee09b21137e237363b47f0ab3599310f3cf7"
	}
}









