get_new_key
{"privateKey":"L2jqw1DvxUrMCYLyu2GjfUyNUom3xY1cDfqYYtkGxQv8wZNQnqnm",
"publicKey":"fn3TWiTM1Y19731dFrVFy9yQy5ivNEWnh97M2HZz9tBx",
"address":"19aSRosu2jkKHUMV1DYzf6CPQktFUkDmZQ"}

创建的时候，使用地址：
createprocess:(地址)
{"data":"hello myworld","address":"19aSRosu2jkKHUMV1DYzf6CPQktFUkDmZQ"}
返回
{"result":"010000002231396153526f7375326a6b4b48554d563144597a66364350516b7446556b446d5a510d68656c6c6f206d79776f726c6400001976a9145e13f581890bc20e7f4202af3d9e4f138433743788ac","error":null,"id":1}

signdata:
{"data":"010000002231396153526f7375326a6b4b48554d563144597a66364350516b7446556b446d5a510d68656c6c6f206d79776f726c6400001976a9145e13f581890bc20e7f4202af3d9e4f138433743788ac","privatekeys":["L2jqw1DvxUrMCYLyu2GjfUyNUom3xY1cDfqYYtkGxQv8wZNQnqnm"]}
返回
{"result":{"Hex":"010000002231396153526f7375326a6b4b48554d563144597a66364350516b7446556b446d5a510d68656c6c6f206d79776f726c64006a473044022072ece3e9577e425daaa6604faf66d026eda0baa661920e33ab7416997a2ea2eb022077d080072a5bf419eb53a34e99292fd65dea18996d02af2a9cfaf3c6b75ce329012102402604933ed9a0fb68b2b2dc9972ee09b21137e237363b47f0ab3599310f3cf71976a9145e13f581890bc20e7f4202af3d9e4f138433743788ac","complete":true},"error":null,"id":1}

send_data_to_sys
{"data":"010000002231396153526f7375326a6b4b48554d563144597a66364350516b7446556b446d5a510d68656c6c6f206d79776f726c64006a473044022072ece3e9577e425daaa6604faf66d026eda0baa661920e33ab7416997a2ea2eb022077d080072a5bf419eb53a34e99292fd65dea18996d02af2a9cfaf3c6b75ce329012102402604933ed9a0fb68b2b2dc9972ee09b21137e237363b47f0ab3599310f3cf71976a9145e13f581890bc20e7f4202af3d9e4f138433743788ac","publickey":"19aSRosu2jkKHUMV1DYzf6CPQktFUkDmZQ"}
返回
{"result":"0264c085e2f5c2cedbb4a54b6c749750b096b3ebf99a70ffad94826de57dba6a","error":null,"id":1}

get_data_from_sys
{"data_id":"0264c085e2f5c2cedbb4a54b6c749750b096b3ebf99a70ffad94826de57dba6a","verbose":0}
返回简要信息
{"result":"010000002231396153526f7375326a6b4b48554d563144597a66364350516b7446556b446d5a510d68656c6c6f206d79776f726c64006a473044022072ece3e9577e425daaa6604faf66d026eda0baa661920e33ab7416997a2ea2eb022077d080072a5bf419eb53a34e99292fd65dea18996d02af2a9cfaf3c6b75ce329012102402604933ed9a0fb68b2b2dc9972ee09b21137e237363b47f0ab3599310f3cf71976a9145e13f581890bc20e7f4202af3d9e4f138433743788ac","error":null,"id":1}
返回详细信息
{"result":{"hex":"010000002231396153526f7375326a6b4b48554d563144597a66364350516b7446556b446d5a510d68656c6c6f206d79776f726c64006a473044022072ece3e9577e425daaa6604faf66d026eda0baa661920e33ab7416997a2ea2eb022077d080072a5bf419eb53a34e99292fd65dea18996d02af2a9cfaf3c6b75ce329012102402604933ed9a0fb68b2b2dc9972ee09b21137e237363b47f0ab3599310f3cf71976a9145e13f581890bc20e7f4202af3d9e4f138433743788ac","dataid":"0264c085e2f5c2cedbb4a54b6c749750b096b3ebf99a70ffad94826de57dba6a","data":"hello myworld","scriptpubkey":{"asm":"OP_DUP OP_HASH160 5e13f581890bc20e7f4202af3d9e4f1384337437 OP_EQUALVERIFY OP_CHECKSIG","hex":"76a9145e13f581890bc20e7f4202af3d9e4f138433743788ac","reqSigs":1,"type":"pubkeyhash","addresses":["19aSRosu2jkKHUMV1DYzf6CPQktFUkDmZQ"]},"scriptsig":{"asm":"3044022072ece3e9577e425daaa6604faf66d026eda0baa661920e33ab7416997a2ea2eb022077d080072a5bf419eb53a34e99292fd65dea18996d02af2a9cfaf3c6b75ce329[ALL] 02402604933ed9a0fb68b2b2dc9972ee09b21137e237363b47f0ab3599310f3cf7","hex":"473044022072ece3e9577e425daaa6604faf66d026eda0baa661920e33ab7416997a2ea2eb022077d080072a5bf419eb53a34e99292fd65dea18996d02af2a9cfaf3c6b75ce329012102402604933ed9a0fb68b2b2dc9972ee09b21137e237363b47f0ab3599310f3cf7"}},"error":null,"id":1}

创建的时候，使用公钥：
{"data":"hello myworld","address":"fn3TWiTM1Y19731dFrVFy9yQy5ivNEWnh97M2HZz9tBx"}
{"result":"010000002c666e33545769544d31593139373331644672564679397951793569764e45576e6839374d32485a7a397442780d68656c6c6f206d79776f726c6400001976a9145e13f581890bc20e7f4202af3d9e4f138433743788ac","error":null,"id":1}

signdata:
{"data":"010000002c666e33545769544d31593139373331644672564679397951793569764e45576e6839374d32485a7a397442780d68656c6c6f206d79776f726c6400001976a9145e13f581890bc20e7f4202af3d9e4f138433743788ac","privatekeys":["L2jqw1DvxUrMCYLyu2GjfUyNUom3xY1cDfqYYtkGxQv8wZNQnqnm"]}
返回
{"result":{"Hex":"010000002c666e33545769544d31593139373331644672564679397951793569764e45576e6839374d32485a7a397442780d68656c6c6f206d79776f726c64006a473044022072ece3e9577e425daaa6604faf66d026eda0baa661920e33ab7416997a2ea2eb022077d080072a5bf419eb53a34e99292fd65dea18996d02af2a9cfaf3c6b75ce329012102402604933ed9a0fb68b2b2dc9972ee09b21137e237363b47f0ab3599310f3cf71976a9145e13f581890bc20e7f4202af3d9e4f138433743788ac","complete":true},"error":null,"id":1}

send_data_to_sys:
{"data":"010000002c666e33545769544d31593139373331644672564679397951793569764e45576e6839374d32485a7a397442780d68656c6c6f206d79776f726c64006a473044022072ece3e9577e425daaa6604faf66d026eda0baa661920e33ab7416997a2ea2eb022077d080072a5bf419eb53a34e99292fd65dea18996d02af2a9cfaf3c6b75ce329012102402604933ed9a0fb68b2b2dc9972ee09b21137e237363b47f0ab3599310f3cf71976a9145e13f581890bc20e7f4202af3d9e4f138433743788ac","publickey":"fn3TWiTM1Y19731dFrVFy9yQy5ivNEWnh97M2HZz9tBx"}
返回
{"result":"70cfad2f97ac25f6a181db889f231886f42614e06b3c9dbe386b761967286cb1","error":null,"id":1}

get_data_from_sys
{"data_id":"70cfad2f97ac25f6a181db889f231886f42614e06b3c9dbe386b761967286cb1","verbose":0}
返回概要信息:
{"result":"010000002c666e33545769544d31593139373331644672564679397951793569764e45576e6839374d32485a7a397442780d68656c6c6f206d79776f726c64006a473044022072ece3e9577e425daaa6604faf66d026eda0baa661920e33ab7416997a2ea2eb022077d080072a5bf419eb53a34e99292fd65dea18996d02af2a9cfaf3c6b75ce329012102402604933ed9a0fb68b2b2dc9972ee09b21137e237363b47f0ab3599310f3cf71976a9145e13f581890bc20e7f4202af3d9e4f138433743788ac","error":null,"id":1}

返回详细信息：
{"result":{"hex":"010000002c666e33545769544d31593139373331644672564679397951793569764e45576e6839374d32485a7a397442780d68656c6c6f206d79776f726c64006a473044022072ece3e9577e425daaa6604faf66d026eda0baa661920e33ab7416997a2ea2eb022077d080072a5bf419eb53a34e99292fd65dea18996d02af2a9cfaf3c6b75ce329012102402604933ed9a0fb68b2b2dc9972ee09b21137e237363b47f0ab3599310f3cf71976a9145e13f581890bc20e7f4202af3d9e4f138433743788ac","dataid":"70cfad2f97ac25f6a181db889f231886f42614e06b3c9dbe386b761967286cb1","data":"hello myworld","scriptpubkey":{"asm":"OP_DUP OP_HASH160 5e13f581890bc20e7f4202af3d9e4f1384337437 OP_EQUALVERIFY OP_CHECKSIG","hex":"76a9145e13f581890bc20e7f4202af3d9e4f138433743788ac","reqSigs":1,"type":"pubkeyhash","addresses":["19aSRosu2jkKHUMV1DYzf6CPQktFUkDmZQ"]},"scriptsig":{"asm":"3044022072ece3e9577e425daaa6604faf66d026eda0baa661920e33ab7416997a2ea2eb022077d080072a5bf419eb53a34e99292fd65dea18996d02af2a9cfaf3c6b75ce329[ALL] 02402604933ed9a0fb68b2b2dc9972ee09b21137e237363b47f0ab3599310f3cf7","hex":"473044022072ece3e9577e425daaa6604faf66d026eda0baa661920e33ab7416997a2ea2eb022077d080072a5bf419eb53a34e99292fd65dea18996d02af2a9cfaf3c6b75ce329012102402604933ed9a0fb68b2b2dc9972ee09b21137e237363b47f0ab3599310f3cf7"}},"error":null,"id":1}

