# 新接口rpc调用说明
由于动态库还未实现，该文档只对rpc调用做出简要说明
##1. get_new_key
和之前的一样，只是在返回结果中添加了一个地址字段。
### 返回结果如下：
```xml
{
	"privateKey":"L2jqw1DvxUrMCYLyu2GjfUyNUom3xY1cDfqYYtkGxQv8wZNQnqnm",
	"publicKey":"fn3TWiTM1Y19731dFrVFy9yQy5ivNEWnh97M2HZz9tBx",
	"address":"19aSRosu2jkKHUMV1DYzf6CPQktFUkDmZQ"
}
```

## 2. createprocess(暂定为此函数)
### 1. 调用
```xml
http://192.168.101.28:8332/createprocess
```
#### 2.2 数据参数
```javascript
//最后一个字段传入地址
{"data":"hello myworld","address":"19aSRosu2jkKHUMV1DYzf6CPQktFUkDmZQ"}

//最后一个字段传入公钥(后期废弃)
{"data":"hello myworld","address":"fn3TWiTM1Y19731dFrVFy9yQy5ivNEWnh97M2HZz9tBx"}
```
#### 2.3 结果返回
```javascript
{"result":"010000002231396153526f7375326a6b4b48554d563144597a66364350516b7446556b446d5a510d68656c6c6f206d79776f726c64001976a9145e13f581890bc20e7f4202af3d9e4f138433743788ac00","error":null,"id":1}
```
实际处理中，只使用如下示例的字符串，其他的是附带的错误信息,后面示例皆如此理
```javascript
"010000002231396153526f7375326a6b4b48554d563144597a66364350516b7446556b446d5a510d68656c6c6f206d79776f726c64001976a9145e13f581890bc20e7f4202af3d9e4f138433743788ac00"
```

## 3. signdata(暂定为此函数名)
### 3.1 调用
```javascript
http://192.168.101.28:8332/signdata
```
### 3.2 参数传递
```javascript
{"data":"010000002231396153526f7375326a6b4b48554d563144597a66364350516b7446556b446d5a510d68656c6c6f206d79776f726c6400001976a9145e13f581890bc20e7f4202af3d9e4f138433743788ac","privatekeys":["L2jqw1DvxUrMCYLyu2GjfUyNUom3xY1cDfqYYtkGxQv8wZNQnqnm"]}
```

### 3.3 结果返回
```javascript
{"result":{"Hex":"010000002231396153526f7375326a6b4b48554d563144597a66364350516b7446556b446d5a510d68656c6c6f206d79776f726c64001976a9145e13f581890bc20e7f4202af3d9e4f138433743788ac6a473044022072ece3e9577e425daaa6604faf66d026eda0baa661920e33ab7416997a2ea2eb022077d080072a5bf419eb53a34e99292fd65dea18996d02af2a9cfaf3c6b75ce329012102402604933ed9a0fb68b2b2dc9972ee09b21137e237363b47f0ab3599310f3cf7","sign":"483045022100f70125bc7855bdcf572711bd0dabdb661406847e067da0bf327f982e89720ce602200e9b09a5c2bc382cdb140ae17e46a1729e77f6a91daef8f365ecc78319812794012102402604933ed9a0fb68b2b2dc9972ee09b21137e237363b47f0ab3599310f3cf7","complete":true},"error":null,"id":1}

```
上述示例中，data字段的值，是2.3中的字符串

## 4. send_data_to_sys(名字沿用之前的)
### 4.1 函数调用示例
```javascript
http://192.168.101.28:8332/send_data_to_sys
```
### 4.2 参数传递
```javascript
{"data":"010000002231396153526f7375326a6b4b48554d563144597a66364350516b7446556b446d5a510d68656c6c6f206d79776f726c64006a473044022072ece3e9577e425daaa6604faf66d026eda0baa661920e33ab7416997a2ea2eb022077d080072a5bf419eb53a34e99292fd65dea18996d02af2a9cfaf3c6b75ce329012102402604933ed9a0fb68b2b2dc9972ee09b21137e237363b47f0ab3599310f3cf71976a9145e13f581890bc20e7f4202af3d9e4f138433743788ac","publickey":"fn3TWiTM1Y19731dFrVFy9yQy5ivNEWnh97M2HZz9tBx"}
```
后期改为不带最后的公钥参数，因为在字符串中，已含有公钥信息

### 4.3 结果返回
```javascript
{"result":"df43c68ff7b7d4fece356bb3dbb74ea5fc361b6956f6263d3cfb488271c860de","error":null,"id":1}
```
result字段后面的字符串为该条数据的id信息，作为数据的唯一索引，在查询该条数据的时候要用到。

## 5. get_data_from_sys(函数名沿用之前的)
### 5.1 函数调用示例
```javascript
http://192.168.101.28:8332/get_data_from_sys
```
### 5.2 返回简要信息
#### 5.2.1 简要信息
```javascript
{"data_id":"0264c085e2f5c2cedbb4a54b6c749750b096b3ebf99a70ffad94826de57dba6a","verbose":0}
```
简要信息，verbose字段为0，注意，此处的id与上面的id不一致，是由于数据不是同一个数据。
#### 5.2.2 返回信息
```javascript
{"result":"010000002231396153526f7375326a6b4b48554d563144597a66364350516b7446556b446d5a510d68656c6c6f206d79776f726c64006a473044022072ece3e9577e425daaa6604faf66d026eda0baa661920e33ab7416997a2ea2eb022077d080072a5bf419eb53a34e99292fd65dea18996d02af2a9cfaf3c6b75ce329012102402604933ed9a0fb68b2b2dc9972ee09b21137e237363b47f0ab3599310f3cf71976a9145e13f581890bc20e7f4202af3d9e4f138433743788ac","error":null,"id":1}
```

### 5.3 返回详细信息
#### 5.3.1 详细信息
```javascript
{"data_id":"0264c085e2f5c2cedbb4a54b6c749750b096b3ebf99a70ffad94826de57dba6a","verbose":1}
```
#### 5.3.2 返回信息
```javascript
{"result":{"hex":"010000002231396153526f7375326a6b4b48554d563144597a66364350516b7446556b446d5a510d68656c6c6f206d79776f726c64006a473044022072ece3e9577e425daaa6604faf66d026eda0baa661920e33ab7416997a2ea2eb022077d080072a5bf419eb53a34e99292fd65dea18996d02af2a9cfaf3c6b75ce329012102402604933ed9a0fb68b2b2dc9972ee09b21137e237363b47f0ab3599310f3cf71976a9145e13f581890bc20e7f4202af3d9e4f138433743788ac","dataid":"0264c085e2f5c2cedbb4a54b6c749750b096b3ebf99a70ffad94826de57dba6a","data":"hello myworld","scriptpubkey":{"asm":"OP_DUP OP_HASH160 5e13f581890bc20e7f4202af3d9e4f1384337437 OP_EQUALVERIFY OP_CHECKSIG","hex":"76a9145e13f581890bc20e7f4202af3d9e4f138433743788ac","reqSigs":1,"type":"pubkeyhash","addresses":["19aSRosu2jkKHUMV1DYzf6CPQktFUkDmZQ"]},"scriptsig":{"asm":"3044022072ece3e9577e425daaa6604faf66d026eda0baa661920e33ab7416997a2ea2eb022077d080072a5bf419eb53a34e99292fd65dea18996d02af2a9cfaf3c6b75ce329[ALL] 02402604933ed9a0fb68b2b2dc9972ee09b21137e237363b47f0ab3599310f3cf7","hex":"473044022072ece3e9577e425daaa6604faf66d026eda0baa661920e33ab7416997a2ea2eb022077d080072a5bf419eb53a34e99292fd65dea18996d02af2a9cfaf3c6b75ce329012102402604933ed9a0fb68b2b2dc9972ee09b21137e237363b47f0ab3599310f3cf7"}},"error":null,"id":1}
```

## 6. decoderawdata 解码源数据
### 6.1 函数调用示例
```javascript
http://192.168.101.28:8332/decoderawdata
```
### 6.2 参数传递
```javascript
"010000002231396153526f7375326a6b4b48554d563144597a66364350516b7446556b446d5a510d68656c6c6f206d79776f726c64006a473044022072ece3e9577e425daaa6604faf66d026eda0baa661920e33ab7416997a2ea2eb022077d080072a5bf419eb53a34e99292fd65dea18996d02af2a9cfaf3c6b75ce329012102402604933ed9a0fb68b2b2dc9972ee09b21137e237363b47f0ab3599310f3cf71976a9145e13f581890bc20e7f4202af3d9e4f138433743788ac"
```

### 6.3 结果返回
```javascript
{"result":{"dataid":"0264c085e2f5c2cedbb4a54b6c749750b096b3ebf99a70ffad94826de57dba6a","data":"hello myworld","scriptpubkey":{"asm":"OP_DUP OP_HASH160 5e13f581890bc20e7f4202af3d9e4f1384337437 OP_EQUALVERIFY OP_CHECKSIG","hex":"76a9145e13f581890bc20e7f4202af3d9e4f138433743788ac","reqSigs":1,"type":"pubkeyhash","addresses":["19aSRosu2jkKHUMV1DYzf6CPQktFUkDmZQ"]},"scriptsig":{"asm":"3044022072ece3e9577e425daaa6604faf66d026eda0baa661920e33ab7416997a2ea2eb022077d080072a5bf419eb53a34e99292fd65dea18996d02af2a9cfaf3c6b75ce329[ALL] 02402604933ed9a0fb68b2b2dc9972ee09b21137e237363b47f0ab3599310f3cf7","hex":"473044022072ece3e9577e425daaa6604faf66d026eda0baa661920e33ab7416997a2ea2eb022077d080072a5bf419eb53a34e99292fd65dea18996d02af2a9cfaf3c6b75ce329012102402604933ed9a0fb68b2b2dc9972ee09b21137e237363b47f0ab3599310f3cf7"}},"error":null,"id":1}
```



